:060000000A128A110C280F
:10000800FE00030EF0000A08F1000A128A153A2FC2
:100018000A128A110F28FA01FB0183120313E20165
:10002800E301E401E501E60183010A128A11732E56
:100038008312031329088039B3002908AE002E075C
:10004800B900A81F282829282A283914390803198B
:100058002E282F283E28390A031D332834283C2807
:100068000030A9000030A8000030A7000030A6002A
:10007800A81746280030A9000030A8000030A700C3
:100088000030A6002D088039AE002E08B3062D08D2
:10009800AE002E07B400AC1F52285328542834143D
:1000A80034080319582859286828340A031D5D287C
:1000B8005E2866280030AD000030AC000030AB0090
:1000C8000030AA00AC1770280030AD000030AC003A
:1000D8000030AB000030AA003408031974287528D2
:1000E8007A283908031D79287A2883280030A9003E
:1000F8000030A8000030A7000030A600602B2608BA
:10010800F2002C080A128A11D4270A128A117308DD
:1001180083120313BF007208BE003E08AE00AF0191
:10012800B001B1013108B8003008B7002F08B60097
:100138002E08B5003F08AE00AF01B001B10131088B
:10014800BD003008BC002F08BB002E08BA002708E5
:10015800F2002B080A128A11D4270A128A1173088E
:1001680083120313BF007208BE003E08AE00AF0141
:10017800B001B1012E08B5072F0803110318013E7D
:100188000319C728B607300803110318013E0319DD
:10019800CE28B707310803110318013E0319D528E3
:1001A800B8073F08AE00AF01B001B1012E08BA0789
:1001B8002F0803110318013E0319E328BB07300871
:1001C80003110318013E0319EA28BC07310803117B
:1001D8000318013E0319F128BD072808F2002A0870
:1001E8000A128A11D4270A128A1173088312031378
:1001F800BF007208BE003E08AE00AF01B001B101F9
:100208002E08B5072F0803110318013E03190D29FD
:10021800B607300803110318013E03191429B7075C
:10022800310803110318013E03191B29B8073F08B9
:10023800AE00AF01B001B1012E08BA072F080311B3
:100248000318013E03192929BB07300803110318B5
:10025800013E03193029BC07310803110318013E78
:1002680003193729BD070830AE000310B50DB60DC8
:10027800B70DB80DAE0B39292708F2002A080A1263
:100288008A11D4270A128A11730883120313BF0034
:100298007208BE003E08AE003F08AF00B001B101D1
:1002A8002E08B5072F0803110318013E03195D290D
:1002B800B607300803110318013E03196429B7076C
:1002C800310803110318013E03196B29B8072608E2
:1002D800F2002B080A128A11D4270A128A1173080D
:1002E80083120313BF007208BE003E08AE003F0829
:1002F800AF00B001B1012E08B5072F08031103188C
:10030800013E03198829B607300803110318013E76
:1003180003198F29B707310803110318013E031980
:100328009629B8070830AE000310B50DB60DB70D05
:10033800B80DAE0B98292608F2002A080A128A116D
:10034800D4270A128A11730883120313BF00720894
:10035800BE003E08AE003F08AF00B001B1012E0854
:10036800B5072F0803110318013E0319BC29B60766
:10037800300803110318013E0319C329B7073108D0
:1003880003110318013E0319CA29B8072708F20008
:100398002C080A128A11D4270A128A1173088312A8
:1003A8000313BF007208BE003E08AE003F08AF004E
:1003B800B001B1012E08BA072F0803110318013E36
:1003C8000319E729BB07300803110318013E031975
:1003D800EE29BC07310803110318013E0319F5295A
:1003E800BD072808F2002B080A128A11D4270A121E
:1003F8008A11730883120313BF007208BE003E08F7
:10040800AE003F08AF00B001B1012E08BA072F08AF
:1004180003110318013E0319122ABB073008031100
:100428000318013E0319192ABC07310803110318E0
:10043800013E0319202ABD072808F2002C080A12D9
:100448008A11D4270A128A11730883120313BF0072
:100458007208BE003E08AE003F08AF00B001B1010F
:1004680008300310AE0DAF0DB00DB10DFF3E031DEA
:10047800352A2E08BA072F0803110318013E03195D
:10048800462ABB07300803110318013E03194D2AF9
:10049800BC07310803110318013E0319542ABD078C
:1004A8003508AE003608AF003708B0003808B1008C
:1004B80018300310B10CB00CAF0CAE0CFF3E031D8E
:1004C8005D2A2E08BA072F0803110318013E0319E5
:1004D8006E2ABB07300803110318013E0319752A59
:1004E800BC07310803110318013E03197C2ABD0714
:1004F8000830AE000310B50DB60DB70DB80DAE0B34
:100508007E2A39083407AE00AF01AF0D2E08823EAF
:10051800BE002F080318013EFF3EBF00B02A01307D
:10052800AE000310BA0DBB0DBC0DBD0DAE0B952A68
:10053800B81F9F2AA02AA12A3A140130AE0003103E
:10054800B50DB60DB70DB80DAE0BA32AFF30BE071B
:100558000318BF0AFF30BF07BC1FB32AB42A932A67
:10056800B401B81FB82AB92AD52AFF303505AE001C
:10057800FF303605AF00FF303705B0007F30380553
:10058800B100310830042F042E040319CC2ACD2AD7
:10059800D02AB401B40AD52A3A1CD32AD42AD52A97
:1005A800CD2A34080319D92ADA2A0B2B0130BA07C5
:1005B800003003180130BB07003003180130BC07B6
:1005C800003003180130BD073D1CEB2AEC2A0B2B29
:1005D8003A08AE003B08AF003C08B0003D08B10047
:1005E8000130B200310DB10CB00CAF0CAE0CB20B37
:1005F800F62A3108BD003008BC002F08BB002E08C1
:10060800BA000130BE070318BF0A0030BF073F0811
:10061800803AFF0080307F02031D142BFF303E021A
:10062800031C172B182B232B7F3083120313BD00B9
:100638008030BC000030BB000030BA00542B83125D
:1006480003133F08803AFF0080307F02031D2E2BE2
:1006580001303E020318312B322B3E2B003083121F
:100668000313BD000030BC000030BB000030BA00EE
:10067800B301542B831203133E08B900FF30BA05A7
:10068800FF30BB057F30BC050030BD05391C4D2B44
:100698004E2B4F2BBC173908AE0003102E0CBD0093
:1006A8003308AE002E08BD043D08A9003C08A80088
:1006B8003B08A7003A08A600080083120313430862
:1006C8008039D0004308C8004807D200C21F6D2BEC
:1006D8006E2B6F2B521452080319732B742B842B17
:1006E800520A031D782B792B812B0030C300003070
:1006F800C2000030C1000030C000C217C3018C2BFB
:100708000030C3000030C2000030C1000030C0001B
:1007180047088039D100510850060319942B952BAE
:10072800962B50174708C8004807D100C61F9D2BB5
:100738009E2B9F2B511451080319A32BA42BB42BC8
:10074800510A031DA82BA92BB12B0030C70000307C
:10075800C6000030C5000030C400C617C701BC2B56
:100768000030C7000030C6000030C5000030C400AB
:10077800520851020318C12BC22BE82B501FC52B5E
:10078800C62BCA2B8030C8004808D0065208D300B0
:100798005108D2005308D1004008D3004408C000D3
:1007A8005308C4004108D3004508C1005308C500D8
:1007B8004208D3004608C2005308C6004308D300C5
:1007C8004708C3005308C700D3015108C800C9012E
:1007D8004908CB0052084802CA00031CCB034B0847
:1007E800803AFF0080307F02031DFC2B1A304A023A
:1007F800031CFF2B002C372C8312031343084204DD
:1008080041044004031D092C0B2C01300C2C003032
:10081800D3000030C3000030C2000030C1000030F7
:10082800C0005108D2003F2C531C1B2C1C2C232C1D
:100838005308C8000310480C0138D300252C0310B6
:10084800D30C401C282C292C2A2CD3170130C80083
:10085800430DC30CC20CC10CC00CC80B2C2C0130AE
:10086800C8004808D2078312031351085202031C18
:100878003E2C3F2C182C501B422C432C8C2C5208FD
:10088800031D472C482C512C0030C3000030C200F7
:100898000030C1000030C000B82D4408C00745082A
:1008A80003110318013E03195A2CC1074608031106
:1008B8000318013E0319612CC207470803110318E6
:1008C800013E0319682CC307431C6B2C6C2C402D6C
:1008D800531C6F2C702C772C5308C8000310480C3D
:1008E8000138D300792C0310D30C401C7C2C7D2CB0
:1008F8007E2CD3170130C800430DC30CC20CC10CA9
:10090800C00CC80B802C0130C8004808D207402D05
:100918004308803AFF004708803A7F02031D9E2C57
:1009280046084202031D9E2C45084102031D9E2CC9
:10093800440840020318A12CA22CFA2CFF30C8004E
:10094800FF30C900FF30CA00FF30CB004408CC009C
:100958004508CD004608CE004708CF004008CC0225
:100968004108031C410FB92CBA2CCD024208031CC4
:10097800420FBF2CC02CCE024308031C430FC52CCA
:10098800C62CCF024C08C8074D0803184D0FCD2CB4
:10099800CE2CC9074E0803184E0FD32CD42CCA07E7
:1009A8004F0803184F0ACB074B08C3004A08C20078
:1009B8004908C1004808C0008030C8004808D0066F
:1009C800D309D30A5308031DEA2CEB2C082D013058
:1009D800C007003003180130C10700300318013088
:1009E800C207003003180130C307082D4408C002AD
:1009F8004508031C450FC1024608031C460FC202E6
:100A08004708031C470FC30243084204410440043B
:100A1800031D0F2D102D3C2D5308031D142D152DCE
:100A28003C2D0030C3000030C2000030C10000304F
:100A3800C000B82D0130C8000310C00DC10DC20D93
:100A4800C30DC80B202DD31F2A2D2B2D2C2D401460
:100A5800531C2F2D302D332D0314D30D352D03109A
:100A6800D30D52080319392D3A2D3C2D0130D202ED
:100A7800C21F3F2D402D1E2DD101D31F442D452DC2
:100A8800532D53087F3903194A2D4B2D4E2DD10173
:100A9800D10A532D401C512D522D532D4B2D510849
:100AA8000319572D582D8C2D0130C007003003181D
:100AB8000130C107003003180130C20700300318A5
:100AC8000130C307431C692D6A2D8C2D4008C800CE
:100AD8004108C9004208CA004308CB000130CC00D5
:100AE8004B0DCB0CCA0CC90CC80CCC0B742D4B0885
:100AF800C3004A08C2004908C1004808C000520A99
:100B08000319872D882D8C2D0130C8004808D2077D
:100B1800520A0319902D912D962D5208031D952DDB
:100B2800962DA42D0030C3000030C2000030C10053
:100B38000030C0005208031DA22DA32DA42DD00102
:100B4800521CA72DA82DAA2DC217AE2D7F30C80084
:100B58004808C2055208C8000310480CC300D01F3B
:100B6800B62DB72DB82DC317080083120313A000A4
:100B780020080319C02DC12DD52DF51FC42DC52D55
:100B8800D52D7209A2007309A3007409A400750980
:100B9800A500A20A0319A30A0319A40A0319A50A9E
:100BA800DD2D7508A5007408A4007308A300720859
:100BB800A2007508740473047204031DE42DE52D66
:100BC800EE2D0030F5000030F4000030F300003066
:100BD800F200722E9630A100FE2D0130F600760844
:100BE800A10701300310A50CA40CA30CA20CFF3E16
:100BF800031DF62DFE302505031D032E042EF12DB1
:100C0800202E0130F6007608A1070130A207003037
:100C180003180130A307003003180130A40700307F
:100C280003180130A50701300310A50CA40CA30C70
:100C3800A20CFF3E031D182EFF302505031D252E8F
:100C4800262E052E322E0130A1020130F6000310A7
:100C5800A20DA30DA40DA50DF60B2B2EA41B352E4E
:100C6800362E3C2E0230210203183B2E3C2E272E16
:100C780021183F2E402E482EFF30A205FF30A30535
:100C88007F30A405FF30A5050310A10C2108F6004C
:100C9800F701F801F90118300310F60DF70DF80DFA
:100CA800F90DFF3E031D502E7608A2047708A30411
:100CB8007808A4047908A50420080319642E652E71
:100CC8006A2EF51F682E692E6A2EA5172508F500CD
:100CD8002408F4002308F3002208F20008000A128E
:100CE8008A155A270A128A110A128A156C270A12BB
:100CF8008A110A128A154A270A128A111D300A1205
:100D08008A158A270A128A1149300A128A158A27EF
:100D18000A128A11831203138C1E932E942E8E2E80
:100D28001F08C33904389F00413083120313E000C1
:100D3800E00B9C2E9F2E831203139F149F18A52E41
:100D4800A62EA22E1E08E000E1016008E40061085A
:100D5800E5006508DF006408DE000A128A15AB2783
:100D68000A128A1183120313620895004130831214
:100D78000313E000E00BBE2EC12E831203131A08E2
:100D8800E60031306606031DCA2ECB2ED62E36302D
:100D98000A128A158A270A128A1183120313150860
:100DA8009900822E32306606031DDB2EDC2EEB2ED8
:100DB80001300A128A158A270A128A11831203132C
:100DC8008C1EE72EE82EE22E1A088600822E5B3053
:100DD8000A128A158A270A128A11822E0A128A1181
:100DE8000C28031083120313560D570DDD005D0800
:100DF800031DFF2E002F092F0030D7000030D6002A
:100E08000030D5000030D4006C2F5408D8005508A5
:100E1800D9005608DA005708DB001F300310DB0C36
:100E2800DA0CD90CD80CFF3E031D122F5808DC0031
:100E3800D617FF30D405FF30D505FF30D605003072
:100E4800D7059630DD02DD1F2A2F2B2F452F5D0891
:100E5800803A973E0318312F322F332F002F01305D
:100E68000310D70CD60CD50CD40CFF3E031D342F21
:100E78000130D8005808DD07031D432F442F332FB6
:100E88005C2F20305D02031C4A2F4B2F572F002F59
:100E98000130D8000310D40DD50DD60DD70DD80BC1
:100EA8004E2F0130DD025D08031D5B2F5C2F4C2F98
:100EB8005C080319602F612F6C2FD409D509D60956
:100EC800D709D40A0319D50A0319D60A0319D70A68
:100ED800080007308A000408840A82070034433473
:100EE8006134723461346334743465347234203458
:100EF8004134533443344934493420346134203440
:100F08006D346F34733474347234613472342E3403
:100F18002E342E3400340D343134293420344C34FA
:100F2800653465347234203450346F347434653425
:100F38006E34633469346F346D34653474347234A8
:100F48006F3420340D340034563461346C346F34CB
:100F580072342034643465346C34203470346F3423
:100F6800743420342D342D343E342034003432345B
:100F78002934203445346E3476346934613472341B
:100F880020344134533443344934493420340D3403
:100F980000346534723472346F3472340D34003472
:100FA80083120313A400A001A1017208F400F50143
:100FB8007408A2007508A300241CE32FE42FEA2F6D
:100FC8002208A0070318A10A2308A107013003106B
:100FD800A20DA30DFF3E031DEB2F0310A40C240844
:100FE800031DF72FF82FE02F2108F3002008F20047
:020FF8000800EF
:101E7400831203130C1F3F2F402F432F86170C137D
:101E84000C1271088A00700E8300FE0E7E0E09008B
:101E94000C30831603139900181283120313981736
:101EA400831603139816831203130C1218160800D2
:101EB400831603138601831203138601703083167D
:101EC40003138F040F148B170C178B168312031331
:101ED4000C13080083160313851483160317881440
:101EE400831203131F083F3980389F00831603139E
:101EF4009F121F129F13831203131F08C339043840
:101F04009F001F144230F200F20B862F00000800DD
:101F1400F3009E2F831203130C1E912F922F8C2FEC
:101F2400730884000A128A116D270A128A1599000F
:101F34000130F2007208F307730884000A128A1150
:101F44006D270A128A15003A031DA92FAA2F8C2F78
:101F54000800831203135E08F2005F08F3000030E8
:101F6400F31BFF30F400F50001300A128A11B92581
:101F74000A128A15750883120313AD007408AC00A5
:101F84007308AB007208AA003F30A9004F30A800C4
:101F9400CF30A700D030A6000A128A111C200A12E2
:101FA4008A15831203132908C7002808C6002708C6
:101FB400C5002608C4004230C3004030C2000030CF
:101FC400C1000030C0000A128A1161230A128A1566
:101FD400831203134308D7004208D6004108D500F2
:101FE4004008D4000A128A11F5260A128A158312AF
:0C1FF40003135508E3005408E200080045
:08400000FF3FFF3FFF3FFF3FC0
:04400E00D420FF3F7C
:00000001FF
